:040000000BEF00F012
:100008004482FACF05F0FBCF06F071ED05F055EF0D
:1000180006F0266E000E306E000E286E000E276E5B
:10002800000E2D6E000E296E000E316E070E316423
:1000380001D0C6D0315032EC06F013C02EF014C0F7
:100048002FF03150020D7E0EF324D96E000EF420ED
:10005800DA6E2E50DE5C2F50DE58D8B00CD03150FE
:10006800020D7E0EF324D96E000EF420DA6EDECF78
:100078002EF0DDCF2FF03150020DD10EF324D96EC2
:10008800000EF420DA6EDE502E5CDE502F58D8B009
:100098000CD03150020DD10EF324D96E000EF4208D
:1000A800DA6EDECF2EF0DDCF2FF03150020DD10EFB
:1000B800F324D96E000EF420DA6EDECF1CF0DDCF0B
:1000C8001DF01C1E1D1E1C4A1D2A2E501C262F50BA
:1000D8001D22060ED8901C361D36E82EFBD71CC0F4
:1000E80013F01DC014F03150020D7E0EF324D96EAA
:1000F800000EF420DA6EDECF1EF0DDCF1FF0315097
:10010800020DD10EF324D96E000EF420DA6EDECF84
:1001180020F0DDCF21F0201E211E204A212A1E506A
:100128002024156E1F502120166E09EC06F013C00E
:1001380027F014C028F03150010D8E0EF324D96E2B
:10014800000EF420DA6E27C0DFFF2650D8A414D0A2
:100158003150010D8E0EF324D96E000EF420DA6EA4
:100168003150010D8E0EF324E16E000EF420E26E84
:10017800E7500008400FDF6E3150010D8E0EF3245A
:10018800D96E000EF420DA6EDE501B5CD8B008D0B1
:100198002D2A3150305CD8B011D031C030F00ED09B
:1001A8003150010D8E0EF324D96E000EF420DA6E54
:1001B800140EDF6403D0292A31C02CF0312A36D737
:1001C8002C50010D8E0EF324D96E000EF420DA6E39
:1001D800DF501C6E1C501B0DF3CF13F0F4CF14F03E
:1001E800000E166E400E156E2FEC05F0131E141E31
:1001F800134A142A1B0E13242A6E000E14202B6E89
:100208002950D8B484D030502C5CD8B044D0FE0EDD
:100218001C6EFF0E1D6E2D501E6E1F6AD8901E3666
:100228001F361C501E261D501F22E10E1E24D96E9B
:10023800000E1F20DA6EDECF20F0DDCF21F02AC0BD
:1002480022F02BC023F0221E231E224A232A3050DC
:10025800246E256A241E251E244A252A070E2424D6
:10026800136E000E2520146E000E166E520E156EBB
:1002780003EC07F022501326235014222050132693
:1002880021501422290E132400019A6F000E142005
:1002980000019B6F1200FE0E1C6EFF0E1D6E2D508E
:1002A8001E6E1F6AD8901E361F361C501E261D5003
:1002B8001F22E10E1E24D96E000E1F20DA6EDECF3B
:1002C80020F0DDCF21F03050226E236A221E231E3B
:1002D800224A232A070E2224136E000E2320146EAE
:1002E800000E166E520E156E03EC07F02050132602
:1002F800215014222A5013262B501422D70E1324CF
:1003080000019A6FFF0E142000019B6F1200FE0E71
:100318001C6EFF0E1D6E2D501E6E1F6AD8901E3665
:100328001F361C501E261D501F22E10E1E24D96E9A
:10033800000E1F20DA6EDECF20F0DDCF21F0305026
:10034800226E236A221E231E224A232A070E2224F3
:10035800136E000E2320146E000E166E520E156ECC
:1003680003EC07F02050132400019A6F2150142049
:1003780000019B6F120095929596939094908290AD
:10038800838283868190DEEC05F029EC07F0958A5C
:1003980007EC04F083AAFCD78280370E1B6E010E8F
:1003A8000DEC00F03FEC07F013C0CFF014C0D0F014
:1003B800CFC021F0D0C022F086EC03F021C0CDF0F0
:1003C80022C0CEF0560E39EC07F0CFC013F0D0C0E3
:1003D80014F0030E166EE80E156E09EC06F01350B5
:1003E800300F39EC07F0000E166E640E156ECFC094
:1003F80013F0D0C014F009EC06F013C01AF014C0C2
:100408001BF0000E1D6E0A0E1C6E76EC06F01A50DC
:10041800300F39EC07F0000E1D6E640E1C6ECFC055
:100428001AF0D0C01BF076EC06F01AC013F01BC00F
:1004380014F0000E166E0A0E156E09EC06F0135035
:10044800300F39EC07F0030E1D6EE80E1C6ECFC09E
:100458001AF0D0C01BF076EC06F01AC0C9F01BC029
:10046800CAF0000E1D6E640E1C6EC9C01AF0CAC018
:100478001BF076EC06F01AC0CBF01BC0CCF0CBC05A
:100488001AF0CCC01BF0000E1D6E0A0E1C6E76EC26
:1004980006F01A50300F39EC07F0460E39EC07F029
:1004A800CDC013F0CEC014F0030E166EE80E156E14
:1004B80009EC06F01350300F39EC07F0000E166EF9
:1004C800640E156ECDC013F0CEC014F009EC06F022
:1004D80013C01AF014C01BF0000E1D6E0A0E1C6E1D
:1004E80076EC06F01A50300F39EC07F0000E1D6E4E
:1004F800640E1C6ECDC01AF0CEC01BF076EC06F070
:100508001AC013F01BC014F0000E166E0A0E156EFA
:1005180009EC06F01350300F39EC07F0030E1D6E8E
:10052800E80E1C6ECDC01AF0CEC01BF076EC06F0BB
:100538001AC0C9F01BC0CAF0000E1D6E640E1C6EF6
:10054800C9C01AF0CAC01BF076EC06F01AC0CBF08E
:100558001BC0CCF0CBC01AF0CCC01BF0000E1D6E37
:100568000A0E1C6E76EC06F01A50300F39EC07F0C4
:10057800000E0001C56F000EC66F000EC76F000E9B
:10058800C86F0001C8510001C71109E1100E000130
:10059800C55D270E0001C659D8B0FFD601D0FDD6DB
:1005A800010E0001C527000EC623C723C82300017A
:1005B800C8510001C71101E1E9D7EFD60001A96FC1
:1005C80020EEF1F010EE9CF00C0EDBCFE3FFE80616
:1005D800FCE2920E0001AA6F0F0E0001AB6F920EA3
:1005E8000001AC6F0F0E0001AD6F920E0001AE6FEF
:1005F8000F0E0001AF6F920E0001B06F0F0E0001D9
:10060800B16F920E0001B26F0F0E0001B36F960E1C
:100618000001B46F0F0E0001B56F960E0001B66FA2
:100628000F0E0001B76F960E0001B86F0F0E000194
:10063800B96F930E0001BA6F0F0E0001BB6F930ED6
:100648000001BC6F0F0E0001BD6F930E0001BE6F5D
:100658000F0E0001BF6F930E0001C06F0F0E000157
:10066800C16F930E0001C26F0F0E0001C36F00012E
:10067800A9510001D8B402D0C19801D0C188135043
:10068800D8B402D0C19A01D0C18A000E0001C46F4B
:1006980020D00001C451010D9C0EF324D96E000E28
:1006A800F420DA6EDF50156E0001C451020DAA0E57
:1006B800F324D96E000EF420DA6EDECF16F0DDCF0B
:1006C80017F016C0D9FF17C0DAFF1550DF12000166
:1006D800C42B0001C451145CD8B0DBD71450FF0AF6
:1006E800156E1504146E0F0E1416F00EC116C150B7
:1006F8001410C16EC08EC094C082C090C08AC098C9
:10070800C0861200000E296E000E2A6E000E2B6E97
:10071800000E2C6E000E2E6E0F0E2D6E2EBE2BD0E0
:100728002E5003E12D04D8A026D0FE0E236EFF0E16
:10073800246E2DC025F02EC026F0D89025362636FA
:100748002350252624502622600E2524D96E000E1B
:100758002620DA6ED8902D34E16E2E34E26E600ECB
:10076800E126000EE222DECFE6FFDDCFE5FF2D0613
:10077800D8A02E06D3D721C060F022C061F0000EA9
:100788002E6E000E2D6E2EBE06D02E5025E10F0EB9
:100798002D5CD8B021D0D8902D34D96E2E34DA6E95
:1007A800600ED926000EDA22DECF23F0DDCF24F04A
:1007B80023C025F024C026F0000E26BEFF0E276EAB
:1007C800286E2550292626502A2227502B222850C9
:1007D8002C222D4A2E2AD7D729C013F02AC014F06C
:1007E8002BC015F02CC016F00F0E176E000E186EE9
:1007F800000E196E000E1A6E85EC04F013C021F07D
:1008080014C022F01200000E2D6E000E2C6E2D501A
:1008180005E1080E2C5CD8B0120001D012002C5053
:1008280032EC06F0D8902C34D96E2D34DA6E1C0ECA
:10083800D926000EDA2213C0DEFF14C0DDFFD890DF
:100848002C34D96E2D34DA6E1C0ED926000EDA221D
:10085800D8902C34E16E2D34E26E7E0EE126000E27
:10086800E222DE50E65CDE50E658D8B016D0D890CA
:100878002C34D96E2D34DA6E1C0ED926000EDA22ED
:10088800D8902C34E16E2D34E26E7E0EE126000EF7
:10089800E222DECFE6FFDDCFE5FFD8902C34D96E1B
:1008A8002D34DA6ED10ED926000EDA22D8902C34E7
:1008B800E16E2D34E26E1C0EE126000EE222DE50BF
:1008C800E65CDE50E658D8B016D0D8902C34D96EF5
:1008D8002D34DA6E1C0ED926000EDA22D8902C346C
:1008E800E16E2D34E26ED10EE126000EE222DECF5B
:1008F800E6FFDDCFE5FF2C4A2D2A2D5001E189D7EF
:100908001200000E1C6E1AAE0AD01A1E191E181EEE
:10091800176C000E182219221A22010E1C6E16AE30
:100928000AD0161E151E141E136C000E1422152252
:100938001622010E1C1A000E1D6E000E1E6E000EF1
:100948001F6E000E206E1750181019101A10D8B408
:100958002AD0010E1B6E06D0D890173618361936D5
:100968001A361B2A1AAEF8D7D8901D361E361F36EF
:1009780020361750135C18501458195015581A502F
:100988001658D8A009D01750135E1850145A195089
:10099800155A1A50165A1D80D8901A321932183220
:1009A80017321B2EE1D71C50D8B408D0201E1F1EAA
:1009B8001E1E1D6C000E1E221F2220221DC013F0B9
:1009C8001EC014F01FC015F020C016F01200046EEF
:1009D800F2A412000B0E046002D00A0E04D0EF0E2F
:1009E800046402D0F00E046E38C0D9FF39C0DAFFB3
:1009F800DF5040140009D8B422D04050FF0A016EDD
:100A080038C0D9FF39C0DAFF0150DF160450300D65
:100A18001F0EF324026ED10EF420036E0350D76E1E
:100A280002C0D6FF0450300DF31EF41EF34AF42A18
:100A3800FF0EF3243C6EFF0EF4203D6E0AD038C042
:100A4800D9FF39C0DAFF4050DF123D50D76E3CC0A5
:100A5800D6FFF2941200000E186E16AE06D0156C72
:100A6800161ED8B0162A010E186E14AE06D0136CD6
:100A7800141ED8B0142A010E181A000E1A6E000E91
:100A8800196E15501610D8B41CD0010E176E04D06C
:100A9800D89015361636172A16AEFAD7D8901936C2
:100AA8001A361550135C16501458D8A005D0155096
:100AB800135E1650145A1980D89016321532172E14
:100AC800EDD71850D8B404D0196C1A1ED8B01A2A09
:100AD80019C013F01AC014F012000600E9CF07F08D
:100AE800EACF08F0E1CF09F0E2CF0AF0D9CF0BF056
:100AF800DACF0CF0F3CF0DF0F4CF0EF0F6CF0FF005
:100B0800F7CF10F0F8CF11F0F5CF12F0960EAEEC4B
:100B180005F0640EEBEC04F012C0F5FF11C0F8FF0D
:100B280010C0F7FF0FC0F6FF0EC0F4FF0DC0F3FFB3
:100B38000CC0DAFF0BC0D9FF0AC0E2FF09C0E1FF11
:100B480008C0EAFF07C0E9FF06C0FBFF05C0FAFFBF
:100B580044921100026E9EA212000B0E026002D097
:100B68000A0E04D0EF0E026402D0F00E026E36C0F8
:100B7800D9FF37C0DAFFDF5041140009D8B410D0CC
:100B88004150FF0A016E36C0D9FF37C0DAFF015065
:100B9800DF1602500008FA0FCB6E02C043F008D0EF
:100BA80036C0D9FF37C0DAFF4150DF1243C0CBFF50
:100BB8009E921200010E136E0A0E146E010EE2ECE4
:100BC80002F0010EEEEC06F0830E136E0F0E146E9B
:100BD800950E156E0F0E166E020E176EB7EC06F018
:100BE80048EC07F0010E16EC07F0830E136E0F0E9B
:100BF800146E950E156E0F0E166E000E176E97EC8E
:100C080006F044EC07F0F28E1200000E196E000E8A
:100C1800186E15501610D8B41CD0010E176E04D0DB
:100C2800D89015361636172A16AEFAD7D890183631
:100C380019361550135C16501458D8A005D0155005
:100C4800135E1650145A1880D89016321532172E83
:100C5800EDD718C013F019C014F01200156E000E6D
:100C6800176E000E166ED8901536D89015363C0EB5
:100C78001516C30EC2161550C212C280C282C2B265
:100C8800FED7C4CF16F0176A1650176E166AC350EF
:100C98001626000E1722C29016C013F017C014F0C3
:100CA800120000EE60F03C0EEE6AE806FDE100EE90
:100CB80032F0120EEE6AE806FDE1AE0EF66E0D0E8B
:100CC800F76E000EF86E00EED1F010EE2DF0090070
:100CD800F5CFEEFFE550E150FAE14490449200016F
:100CE800BFEF01F01C501D10D8B418D0010E1E6EB5
:100CF80004D0D8901C361D361E2A1DAEFAD71C50BB
:100D08001A5C1D501B58D8A004D01C501A5E1D50E8
:100D18001B5AD8901D321C321E2EF1D71AC01AF059
:100D28001BC01BF01200010E1B6E000E1A6E05D0C0
:100D3800020E1B02F3501B6E1A2A17501A5CD8A019
:100D4800F7D71BC041F01B1E13C036F014C037F094
:100D580015C018F016C019F018C0D9FF19C0DAFF6D
:100D68001B50DF161200010E1B6E000E1A6E05D006
:100D7800020E1B02F3501B6E1A2A17501A5CD8A0D9
:100D8800F7D71BC040F01B1E13C038F014C039F051
:100D980015C018F016C019F018C0D9FF19C0DAFF2D
:100DA8001B50DF161200FFFFFFFFFFFFFFFFFFFFD3
:100DB800FFFFFFFFFFFF0000290052007C00A50095
:100DC800CF00F800220101020408200102040408EF
:100DD80002100100136ED59CD59AD598D58613506C
:100DE800D8B412001304D8A403D0D08EF184120012
:100DF800020E1318D8A41200D08EF19412001350CA
:100E08001502F3CF17F0F4CF18F013501602F35071
:100E1800182614501502F350182617C013F018C0DE
:100E280014F01200136E130ECA6E1350D8B41200C9
:100E38001304D8A403D0D08E9F821200020E131878
:100E4800D8A41200D08E9F9212002C0EAC6E900E79
:100E5800AB6E080EB86EAC98AC84B886000EB06E57
:100E6800560EAF6E949E948C1200136E9EA8FED7F9
:100E780013C0ADFF12009AC013F09BC014F012000B
:100E88009D82CA849E921200F28AD58EF294120034
:020000040020DA
:08000000FFFFFFFFFFFFFFFF00
:020000040030CA
:0E000000000C191EFF0080FF0FC00FE00F4024
:00000001FF
